:03000000020539BD
:0C053900787FE4F6D8FD75817002058023
:1007750053554E004D4F4E005455530057454E00AE
:1007850054485500465249005341540030313233E4
:100795003435363738393031313233333434353610
:0607A500363738383939FF
:100649001526FF0775FF0779FF077DFF0781FF075C
:1006590085FF0789FF078D0D09001F001F1E1F1E3B
:100669001F1F1E1F1E1F1141444154452030302DAC
:1006790030302D30302020200011522020204320FE
:1006890030303A30303A303020202000033C3030CE
:1006990000013BFF081D2D4D48444D2D5900023FD7
:0206A90000004F
:070890001209867F017E00C2
:10089700EF1FAC0670011E4C70F6FFEFC39478741F
:0808A70080948050030F80F3E0
:0108AF002226
:0C0A2200C2A6D2A5D2A700AF80C2A700D8
:010A2E0022A5
:0E0A1400120A22EF20E7F97F057E0002089704
:10097200AD07120A14D2A6C2A5C2A78D80D2A700C3
:0409820000C2A722E6
:10098600AD07120A14C2A6C2A5C2A78D80D2A700BF
:0409960000C2A722D2
:1008B0007F381208907F081208907F011208907FFD
:1008C000061208907F0C1209867F017E00020897AD
:0A06AC008F648D658B668A6789688C
:1006B600E4F569E5657008E5644480FF120986E59E
:1006C6006564017008E56444C0FF120986E4F569B3
:1006D600C3E5699410748094805017AB66AA67A925
:1006E60068856982758300120027FF120972056901
:0206F60080DEA4
:0106F80022DF
:10090C00E4FEEEC3940874809480500FEF1392B5FC
:0B091C00D2B6C2B6EFC313FF0E80E797
:0109270022AD
:1007AB00E4FFEFC39408748094805018EEC313FEDB
:1007BB00A2B5E433FDC433333354804206D2B6C200
:1007CB00B60F80DEEEC4540F75F00AA4FFEE540F83
:0207DB002FFFEE
:0107DD0022F9
:1009C100C2B4C2B6D2B412090C1207ABD2B6C2B4C9
:0109D1002203
:1009D200C2B6D2B412090CAF0512090CC2B6C2B427
:0109E20022F2
:10073800E4FD7F8E1209D2E4FCECC3940774809424
:10074800805023EC25E02480FF74162CF8E6FE7513
:10075800F00A84C454F0FDEE75F00A84E5F04DFD0E
:0D0768001209D20C80D37D807F8E0209D251
:1008D000E4FCECC39407748094805012EC25E0246F
:0E08E00081FF1209C174162CF8A6070C80E4E3
:0108EE0022E7
:10095A00E4FDFCC3ED9FEE6480F8EC6480985007D8
:07096A000DBD00010C80EC43
:010971002263
:1009E3007580FFC2A6D2A5C2A7D2A72087F5C2A74A
:0109F30022E1
:1009F4001209E3C2A78F80D2A6C2A5D2A7C2A7229A
:100A04001209E3C2A78F80C2A6C2A5D2A7C2A72299
:100868008B6E8A6F8970120A04AB6EAA6FA9701218
:10087800000E60130570E5707002056F14F9120020
:080888000EFF1209F480E222C8
:10099A007F38120A047F0C120A047F06120A047FA7
:0409AA0001020A0438
:1008EF00C2B77F1D7E0012095AD2B77F0312095A71
:0C08FF00A2B7E433FB7F1912095AAF03C3
:01090B0022C9
:1009AE00C2B7EF64017002D2B77F027E0012095AFD
:0309BE00D2B7228B
:02083C00A9070A
:10083E00E4FBEBC39408748094805017A803E90876
:10084E008003A2E713D8FBFA530201AF021209AEDE
:0A085E000B80DF7F057E0002095ABF
:10092800C2B7D2B7E4FFEFC3940374809480500336
:080938000F80F3A2B7E433FFC6
:010940002294
:10080F00E4FBFAEAC3940874809480501D120928FF
:10081F00EF600DA8027401088002C333D8FC4203B5
:0C082F007F017E0012095A0A80D9AF0335
:01083B00229A
:1005C5001208EF7FCC12083C7F4412083C7F027E64
:1005D5000012095A1208EF7FCC12083C7FBE1208A0
:1005E5003CE4F9E9C3940274809480500C12080F1E
:1005F500746429F8A6070980EAAE64AD65ED54F088
:1006050064F070206306FFEEF40E6305FF70030DC2
:1006150080007FC5120A04ED540FC454F0FFEE5458
:10062500F0FC80107FC5120A04ED540FC454F0FF8E
:10063500EE54F0FEC4540F4FF5667FC1120A04AFA5
:03064500667E00CE
:01064800228F
:10094100EF75F00A842430120054EF75F00A84E543
:09095100F0243090000102006660
:0907DE00E51C24D0FFE43407FE01
:1007E700AB07AA06EB5403700AFC7D64120088ED80
:1007F7004C700FAE02AF037C017D90120088ED4C68
:0808070070037F01227F002233
:1004A700756C00756D059007D0E51C24D0FFE4340A
:1004B70007FEC3E5829FE5839E502EAF82AE83126F
:1004C70007E7EF7E0160047F6E80027F6D8E6A8F83
:1004D7006BE56D256BFFE56C356AFE7C007D0712C9
:1004E70000888C6C8D6DA380C0E4F56AF56BF5838D
:1004F700758201C3E582951AE58394005013AF8294
:1005070074092FF8E6256BF56BE4356AF56AA38065
:10051700E2E519256BF56BE4356AF56AE56D256B40
:10052700FFE56C356AFE7C007D07120088ED04F557
:010537001BA8
:0105380022A0
:1001C600A907E53B1470030202EE1470030202BC99
:1001D60014700302027214604424FE600302031DBD
:1001E600E9FF3395E0FEEF64014E700DC3E51C9404
:1001F60063748094805002051CBEFF10BFFF0DD3B0
:10020600E51C9400748094804002151C1207DEEFF2
:1002160060047F1D80027F1C8F0B0202B9E9FF3349
:1002260095E0FEEF64014E7002051AD3E51A940CB0
:10023600748094804003751A01BEFF05BFFF021546
:100246001AC3E51A9401748094805003751A0C122F
:1002560007DEEF60047F1D80027F1C8F0B7409256B
:100266001AF8E6FF651960028F1980471207DEEF5C
:1002760060047F1D80027F1C8F0BE9FF3395E0FE33
:10028600EF64014E700205197409251AF8E6FDE5BA
:1002960019D39D4003751901BEFF05BFFF0215194D
:1002A600C3E51994017480948050087409251AF8DE
:1002B600E6F5190204A7E9FF3395E0FEEF64014E67
:1002C60070020518D3E5189417748094804003E4EF
:1002D600F518EFF47002EEF4703DD3E5189400744F
:1002E6008094804032151822E9FF3395E0FEEF64D2
:1002F600014E70020517D3E517943B748094804035
:1003060003E4F517BEFF10BFFF0DD3E51794007485
:080316008094804002151722BB
:03000B000206F9F1
:1006F900C0E0C0D0B2B30540E5407002053FC394E5
:1007090090E53F94015008758CEA758A04801BC3F3
:10071900E5409420E53F94035008758CE0758A18EC
:0F0729008008C28C753F00754000D0D0D0E03200
:03000300020403F1
:10040300C0E0C0F0C083C082C0D075D000C000C0BF
:1004130001C002C003C004C005C006C00720A33D3D
:1004230030A3FDAF3BEF3395E0FEEFF47002EEF443
:100433006006EF64014E7003753B07153BAF3BEF5E
:100443003395E0FEEF64054E7003753B04755F5B07
:10045300741D253BF8E6F56075615D802C20A207CD
:1004630030A2FD7F01800820A10A30A1FD7FFF1289
:1004730001C6801520A01230A0FD120738755F2039
:10048300756020756120753BFFD007D006D005D07D
:1004930004D003D002D001D000D0D0D082D083D0FA
:0404A300F0D0E03283
:10031E001208B075A88375B801D288E4F589758C7A
:10032E00EA758A047B007A007946AF1C1209417A7D
:10033E00007949AF1A1209417A00794CAF191209A6
:10034E0041E51B75F003A42423F8860308E6FA089A
:10035E00E6F9784E7C007D001201A97B007A0079C7
:10036E0057AF181209417A00795AAF171209417A1C
:10037E0000795DAF161209417A007941E4FDFF1252
:10038E0006AC7B007A0079527D01E4FF1206ACE5E3
:10039E001670047F0180027F00E51770047E0180D5
:1003AE00027E00EE5F6002D28CAF3BEF3395E0FE33
:1003BE00BEFF06BFFF031208D01205C58F25E52527
:1003CE0075F06484E5F075F00A842430F508E525AF
:1003DE0075F00A84E5F02430F563AF081209F47F56
:1003EE00057E00120897AF631209F47F067E001295
:0503FE00089702033224
:1005450002031EE493A3F8E493A34003F68001F2AB
:1005550008DFF48029E493A3F85407240CC8C333B7
:10056500C4540F4420C8834004F456800146F6DF86
:10057500E4800B0102040810204080900649E47EC7
:10058500019360BCA3FF543F30E509541FFEE4937B
:10059500A360010ECF54C025E060A840B8E493A342
:1005A500FAE493A3F8E493A3C8C582C8CAC583CA6D
:1005B500F0A3C8C582C8CAC583CADFE9DEE780BE25
:0106AB00004E
:10000E00BB010689828A83E0225002E722BBFE02F0
:09001E00E32289828A83E4932223
:10002700BB010CE58229F582E5833AF583E022508E
:1000370006E92582F8E622BBFE06E92582F8E222D8
:0D004700E58229F582E5833AF583E49322F2
:10005400BB010689828A83F0225002F722BBFE018B
:02006400F32285
:10006600F8BB010DE58229F582E5833AF583E8F0D0
:10007600225006E92582C8F622BBFE05E92582C87C
:02008600F22264
:10008800BC000BBE0029EF8DF084FFADF022E4CC5C
:10009800F875F008EF2FFFEE33FEEC33FCEE9DEC25
:1000A800984005FCEE9DFE0FD5F0E9E4CEFD22ED6B
:1000B800F8F5F0EE8420D21CFEADF075F008EF2FB5
:1000C800FFED33FD4007985006D5F0F222C398FDA6
:0500D8000FD5F0EA2243
:1000DD00E709F60870FA8046E709F20870FA803EE3
:1000ED0088828C83E709F0A370FA807EE309F60815
:1000FD0070FA8076E309F20870FA806E88828C833C
:10010D00E309F0A370FA806289828A83E0A3F6087E
:10011D0070FA805689828A83E0A3F20870FA804AC9
:10012D0080D280FA80C680D4806580F280318010C4
:10013D0080A680EA809A80A880DA80E280CA803129
:10014D0089828A83ECFAE493A3C8C582C8CCC5839F
:10015D00CCF0A3C8C582C8CCC583CC70E9800D890D
:10016D00828A83E493A3F60870F9ECFAA9F0EDFB0B
:10017D002289828A83ECFAE0A3C8C582C8CCC583E4
:10018D00CCF0A3C8C582C8CCC583CC70EA80DD890C
:10019D00828A83E493A3F20870F980CE88F0ED246F
:1001AD0002B4040050C4F582EB2402B4040050BA2A
:0901BD00232345822390012D73D8
:00000001FF
