:03000000020F37B5
:0C0F3700787FE4F6D8FD75810702000009
:03000000020018E3
:10000B00C28CB296857C8C857D8AD28C3275794177
:10001B00757A41757B417529007581907523007543
:10002B00500275510075300075A0FEC226C222C267
:10003B0024753800753A0078357F087600DFFC713F
:10004B007C51907532907531A57144120A5630244B
:10005B0003753034E523B4000512075D016B1523DE
:10006B00900074120A06E5307301ACA1D001E1A136
:10007B00DE01FEC1712105C182210DC1972115C180
:10008B00A6211DC1B32125212D2162C1C02178C11B
:10009B00CD2181C1DA218AC1E72192E14D21A7212E
:1000AB00FA7554FD7557FD755AF0755B27755C3500
:1000BB00755D35755E3B75620A75650A7568F07519
:1000CB0069F0756AF0756CFE756EF2756F135114ED
:1000DB005189515C0156F178302210910371E5740E
:1000EB00C4120F3071B4120F30015F71E5910374BC
:1000FB008401EC120AEAF182015F120AF11207C9BC
:10010B00015F120AF8120819015F120B181208444A
:10011B00015F120B1F120897015F120B261208ECDE
:10012B00015F20221E788079707E060808098832CC
:10013B0087317144DEF5753280753100714475304D
:10014B0000015685713B85723C85733D85743E85F8
:10015B00763F753000015F75601F12093F20230544
:08016B00120B5F015F75611EBC
:10017300120B65015F120B7C12094902005F120B1F
:100183008312099A02005F120B8A1209E2015F12BD
:100193000935202506120B5902005F75671E120BE5
:1001A3004202005F20260CD226752200758901D2F7
:1001B300A9D2AF120ACFE522936038F57F0522E575
:1001C300229375F007A4257F14F57F0522E522937A
:1001D300F57E900BC1E57F93F57C900BDDE57F9376
:1001E300F57D857C8C857D8AD28CAE7E120F1705BA
:1001F30022015FC226015F120A4C20270512020D5D
:10020300016B756E1E120BAA016B756E16120BAA8B
:1002130022797F786F7E0709090889327118A63120
:10022300DEF5AF7671728B538A52AF7471728B564F
:100233008A55AF7371728B598A58AF7571728B5F20
:10024300AF7271728B618A60AF7171728B648A63F2
:10025300AF7071728B678A662275808091F07E1011
:10026300784F51737580C091F07E10785F5173227F
:1002730008743026F580517EDEF622D2A6C2A5C2CE
:10028300A791FBD2A722B10BB116B1992275328E79
:10029300753100714475328D7118853176E4B57608
:1002A3004A7532FC75310012034475328C7531087E
:0902B30012034475328A7531060C
:1002BC001203447532887531071203447532867502
:1002CC0031121203447532847531001203447532B5
:1002DC00827531001203447532807531001203446B
:1002EC0061017532FD120318E531B40104D22761A6
:1002FC0001C22741AD7532817118853170E570549A
:10030C007FF570753280857031714422C2B6000061
:10031C00D2B400E5327C08130092B5D2B600C2B656
:10032C000000DCF37C08C2B600A2B5001300D2B604
:10033C0000DCF3F531C2B422C2B600D2B400E5320F
:10034C007C081300C2B60092B500D2B600DCF3C232
:10035C00B600E5317C081300C2B60092B500D2B6E7
:10036C0000DCF3C2B422EF540FFBEFC4540FFA229B
:10037C0075800191F075803891F075800691F0755B
:10038C00800C91F022F58091F0758053517E758030
:10039C0065517E758074517E22F58091F0758020B8
:1003AC00517E758020517E2271A5758020517E75FD
:1003BC008020517E758020517E758020517E758005
:1003CC0020517E758020517E22910C75802D517E9E
:0B03DC00E5552430F580517E2274842A
:1003E7007191758020517E758054517E7580695159
:1003F7007E75806D517E758065517E2274C47191C2
:10040700758020517E758052517E758069517E7549
:10041700806E517E758067517E227554F07580011C
:100427001204F07580841204F0910C758021120279
:100437007E75802112027E75802112027E7580C52D
:100447001204F0785F7E05120273221202147554AB
:10045700FD755B14755C31755D44755E35755FF0D0
:1004670075620A7565F075661F75671E756A227570
:100477006B35756C3D756D39756E3E756F3412024F
:100487005C2275511F7552457553447554F0755567
:100497003F7556367557F0755832755931755A4448
:1004A700755B44755C35755D42755E4975808191F4
:1004B700F078507E0E1202737580C191F07560203E
:1004C70075614275623F756344756435756533754B
:1004D700664475673975683F75693E756A0A756D53
:1004E7001F785F7E0B12027322C2A6C2A5C2A79114
:1004F700FBD2A7227580FFC2A6D2A5C2A700D2A7AA
:100507002087F122B13674CCB15E744EB15E22B150
:100517003674CCB15E7444B15E120F20B13674CC20
:10052700B15E74BEB15EB17AF52AB17AF52B22D2EB
:10053700B77542C8C2B7D542FBD2B775421ED5427E
:10054700FDC372B775485072B74005D548F980DFCB
:030557007542FAF0
:10055A00D542FD22754308D2B775440813C2B7D5F0
:10056A0044FD92B775441ED544FDD543EAD2B7225D
:10057A00C2AF754808C2B775440600D2B7D544FD64
:10058A00A2B71375451ED545FDD548E9D2B722E570
:10059A002A540F9005C093F56DE52B5407F56AE5CB
:1005AA002A54F0456AC475F06484E5F075F00A844B
:1005BA00F56A85F06B2200010102030304040506B3
:1005CA0006070808090975800191F071E59103751C
:1005DA003004015F75800191F020220F75300851B7
:1005EA005C7532807531807144C16F7533367534EC
:1005FA00357578797555017562F075800191F075D8
:10060A003020C3E54113F5419223A9348771AF71B4
:10061A0071728B678A66A9338772AF7271728B6443
:10062A008A63A978877771D575808A91F075804D2C
:10063A00517E758075517E758073517E75806951C2
:10064A007E758063517E7580C291F078617E065115
:10065A00737580CB91F0758028517E857780517EA5
:10066A00758029517E015F7580C391F078627E02A0
:10067A00517305300530015F7580C091F0785F7E57
:10068A00025173202202C17C753014015F75808F7C
:10069A0091F07430255FF580517EC17C7580889118
:1006AA00F078577E025173C17C75808591F0785439
:1006BA007E025173C17C7580C091F0785F7E0251D1
:1006CA0073C17C7580C391F078627E025173C17CDC
:1006DA007580C691F078657E025173C17CA223E5CC
:1006EA002913F529A933A772A934A771A978A7777D
:1006FA007439B53440E529C313C4F541752900514D
:10070A00147554FD755B14755C31755D44755E3501
:10071A00755FF075620A7565F075661F75671675FF
:10072A006A22756B35756C3D756D39756E3E756FE0
:10073A0034515CC17C05330533053405340578052D
:10074A0055C1047580C691F078657E025173753083
:10075A0008015F2093147F32120F20DFFB3093FDD4
:10076A00D28E75230105300530227523002220948C
:10077A0003B222223095FA222094233094FD740980
:10078A00B564107405B56305757100E19F7406259B
:10079A0071F5710571AF7171728B648A632220954C
:1007AA001D3095FDE4B56411E4B56306757159020F
:1007BA00079FC3E5719406F571157102079F222000
:1007CA00942C3094FD7409B5610974062572F5728A
:1007DA000207EC7403B5610A7402B560057572000C
:1007EA00E1EE0572AF721203728B618A6022209564
:1007FA001D3095FDE4B56111E4B5600675722302FA
:03080A0007EEC333
:10080D00E5729406F57215720207EE2220941330EC
:10081D0094FD7407B55F05757501012B057585751B
:10082D005F222095113095FD7401B55F0575750733
:10083D00012B1575012B2220942B3094FD7409B5D5
:10084D00590874062573F57301667401B5590A7458
:10085D0003B5580575730101680573AF7312037203
:10086D008B598A58222095213095FD7401B559096F
:10087D00E4B558107573310168E4B55907C3E573D4
:10088D009406F57315730208682220942C3094FD9C
:10089D007409B5560974072574F5740208BC740201
:1008AD00B5560A7401B5550575740101BC0574AFD3
:1008BD00741203728B568A55222095223095FD7441
:1008CD0001B5560AE4B555117574120208BCE4B5AC
:1008DD005607C3E5749406F57415740208BC2220FE
:1008ED0094253094FD7409B553117409B5520675EC
:1008FD00760002090A74062576F5760576AF76122E
:10090D0003728B538A522220951D3095FDE4B55309
:10091D0011E4B5520675769902090AC3E576940677
:10092D00F576157602090A22209403B22522309518
:10093D00FA22209403B223223095FA2220942D30EE
:10094D0094FD7409B5640974062572F57202096D7A
:05095D007403B5640BFA
:100962007402B5630675720002096F0572AF7212E6
:1009720003728B648A632220951D3095FDE4B56471
:1009820011E4B5630675722302096FC3E57294061A
:10099200F572157202096F222094243094FD7409B5
:1009A200B567107405B5660575710021B774062523
:1009B20071F5710571AF711203728B678A6622201D
:1009C200951D3095FDE4B56711E4B566067571595C
:1009D2000209B7C3E5719406F57115710209B722D0
:1009E20020940F3094FDE577B443047577412205D6
:1009F200772220950E3095FDE577B4410475774353
:100A02002215772220B24230B2FDE530B4000D75D6
:100A120030367580011204F012048922E530B436B2
:100A22001A75300020270A7532FC75310012034412
:100A3200227532FC75310112034422C224C226758A
:100A42003000D296C2AF12030122209403B22722B1
:100A52003095FA22E4B5705D3025217871793B7FBB
:100A620004E6872EB52E150809DFF6E53FB5760CAC
:100A7200D22475770012045275303422E5411340B6
:100A82000EE54113134015E541131313401B227861
:100A920035797151B83024E98579772278377971BF
:090AA20051B83024E2857A772274
:100AAB007839797151B8302403857B7722E6872F0B
:100ABB00B52F100809E6872FB52F08D224753034CF
:100ACB0012042122E577B44104900C5F22B4420456
:100ADB00900CDA22B44304900DA622900BF9227DE0
:100AEB00C37C62712D227DC07C5F712D2275808F3E
:100AFB001204F07430255FF58012027EF1307580A0
:100B0B008F1204F075802012027EF130227D887CDA
:100B1B0057712D227D857C54712D227D827C5171E4
:100B2B002D228D801204F0ECF87E02120273F1304C
:100B3B00ED1203A5F130227580C61204F078657EA4
:100B4B0002120273F13074C61203A5F130227567DD
:100B5B00167142227561167165227580C01204F000
:100B6B00785F7E02120273F13074C01203A5F1306C
:100B7B00227DC37C62712D227DC67C65712D228501
:100B8B00776C7580CC1204F0856C8012027EF1308C
:100B9B007580CC1204F075802012027EF130227524
:100BAB0080CD1204F0786C7E02120273F13074CD9A
:100BBB001203A5F13022F2F3F5F5F6F7F8F9F9FA8D
:100BCB00FAFBFBFCFCFCFDFDFDFDFEFEFEFEFEFE4E
:100BDB00FEFF42C117B6D0D1B621E18CD868E95BD4
:100BEB008FEE446BB4F42D4777A2B6DAFA160602F1
:100BFB0003050201030202050202010302060201C0
:100C0B0005020106020403020205020106020105A8
:100C1B0002020302020102010601010502010302A5
:100C2B000102020402020303020105020205020192
:100C3B00060201030202020202010204050203037F
:100C4B00020102020101020106010101020105017B
:100C5B000600000003020203020104020103020268
:100C6B00020201010201020202050201020202025A
:100C7B000203010202010201020201010202070149
:100C8B00010601010701020302010701010701032C
:100C9B000601020202010302010202010102010626
:100CAB00010205010202020103020102020101021B
:100CBB000206010306010202020103020102020104
:100CCB0001020106010101020101020500000003FE
:100CDB0002020602010302020302010502010602DF
:100CEB0001060202060201060201010301060201CE
:100CFB0005020106020105020103020102020103C2
:100D0B0002020601020302010202020202020302B4
:100D1B0001060201060201010202010201030201A6
:100D2B000602010602010302010602010702020785
:100D3B00020403020206020103020203020105027E
:100D4B00010602010602020602010602010103016D
:100D5B00060201050201060201050201030201025E
:100D6B000201030201060101030201020202020257
:100D7B000203020103020203020106010206010142
:100D8B00070101070101070101020201010201072D
:100D9B000102060101060102000000060102060124
:100DAB000106010105010106010101020101020118
:100DBB00020201030201010201020201020202010D
:100DCB0002010601020601010102010102010102F9
:100DDB0001020201010201060101020101030101ED
:100DEB0005010105010103010203010203010105D4
:100DFB0001010601010102010202010601020501C6
:100E0B0001060101010201060101030101020102B8
:0D0E1B0001010101010102010103010105B6
:100E2800010106010102020101020105010101029D
:100E3800010601020601020101010101010201018D
:100E4800030101050101060101020201020201027A
:100E5800020103020102020101020106010103016C
:100E6800010501010501010102010102010102025E
:100E78000601030601030000000501010502010443
:100E88000201030202030201040201030202030237
:100E9800010402010302010402010302010202012A
:100EA8000102010102010302010502010602020614
:100EB8000201060201050201020201020201040206
:100EC80001030201030203010201030201050201F9
:100ED80006020106020206020105020105020102DC
:100EE80002010202010402010302010402010302D9
:100EF80001010201020201030201060101060101CA
:100F0800010201010202070102010203000000F1CF
:100F180030F130DEFAC28C227BFA0000DBFC227D45
:0F0F2800C37EFFDEFEDDFA227FC8F120DFFC2250
:00000001FF
