:0300000002057284
:0C057200787FE4F6D8FD75815F0205B9C2
:030ECD00015F03BF
:09101E00120FA4120F75020F5D00
:100A42007B007A007910120BE2AF10EF3395E0FED3
:100A5200EF640A4E70087F01120F12755F01AF102A
:100A6200EF3395E0FEEF640B4E70087F01120F1218
:100A7200755F02AF10EF3395E0FEEF640C4E700528
:100A82007F081203DCAF10EF3395E0FEEF640D4EEA
:100A920070057F471203DCAF10EF3395E0FEEF6481
:100AA2000E4E7003755F03EF640F4E7002F55F2206
:100CE000E55C54F06038535C0F120E29E55F700824
:100CF000D2B0120D5C02095EE55F6401700302056B
:100D0000FEE55F64027003020AB2E55F6403700EE1
:0F0D1000120D5C12095E120FF1EF6002C2B022E9
:100F2B0012101E120CE07F0F8F90EFB59003D38041
:090F3B0001C340EF120A4280EAF2
:030ED000015900C5
:100F5D00C2A95389F0438902E4F588758A18758C06
:080F6D0018D2A9D2AFD28C22E8
:03000B00020C964E
:100C9600C0E0C0F0C083C082C0D075D008C28D0548
:100CA60059AF59EF3395E0FEEF64044E7021435C73
:100CB60001F559055BE55B7002055AB4E811E55A82
:100CC600B4030C755A00755B00435C10120F8DD08F
:0A0CD600D0D082D083D0F0D0E032FD
:1009D00054696D650054686520416C61726D2043F7
:1009E0006C6F636B3A00486F7572004D696E001F43
:1009F0001C1F1E1F1E1F1F1E1F1E1F53756E204D06
:100A00006F6E2054756520576564205468752046C4
:100A1000726920536174204572726F00446174657D
:100A20002032300000010102030304050103040425
:100A30000606070007000101030404060000000089
:020A40000000B4
:100ED300015700015800015500015400015300015E
:080EE30056000151000152000C
:100F750075540B755306755613755717E4F558F5E3
:080F8500557551177552012248
:100FCF007C007D04120398ED4C70037F01227F009B
:010FDF0022EF
:060D1F00AF547E007C00D1
:100D25008E418F428C438D4478457C007D007BFF4E
:100D35007A0979EF7E007F0C1202A3E5446402452F
:100D450043700CAF42AE41120FCFE5462FFF227420
:070D5500442544F8E6FF22EB
:0E101000120FCFEF7E0160037F6E227F6D22F4
:100C3D00E4F53EF53F754001E540C395545015AFC1
:100C4D00407E00121010EF253FF53FEE353EF53E8C
:100C5D00054080E4754001E540C395535013AD4008
:100C6D00120D1FEF253FF53FE4353EF53E05408063
:100C7D00E6E556253FF53FE4353EF53EFEAF3F7CBC
:090C8D00007D07120343AF0522AC
:100E2900E55764187004F5570556AD53120D1FE5C3
:100E390056D39F40057556010553D3E553940C7459
:0B0E4900809480400575530105542281
:100F8D000555E555643C7004F5550558E558643C28
:070F9D007004F5580557220E
:100B1A00E55775F00A842430F513E55775F00A8411
:100B2A00E5F02430F514E55875F00A842430F515FB
:100B3A00E55875F00A84E5F02430F516E55575F0A8
:100B4A000A842430F517E55575F00A84E5F0243057
:100B5A00F518E4FFEFC3940674809480500F741361
:100B6A002FF8E6FE74192FF8A6060F80E77B007AA5
:040B7A0000791922C3
:100D5C00120B1A8B108A1189127BFF7A0979D07FBA
:100D6C0004120E7FAD577F08120EA97D2D7F0A123B
:100D7C001001AD587F0B120EA97D2D7F0D121001A5
:070D8C00AD557F0E020EA918
:100B7E00E55475F00A842430F513E55475F00A84B3
:100B8E00E5F02430F514E55375F00A842430F5159C
:100B9E00E55375F00A84E5F02430F516E55675F048
:100BAE000A842430F517E55675F00A84E5F02430F2
:100BBE00F518E4FFEFC3940674809480500F7413FD
:100BCE002FF8E6FE74192FF8A6060F80E77B007A41
:040BDE00007919225F
:1008E70078137C007D007BFF7A0979FB7E007F21EE
:1008F7001202A378347C007D007BFF7A0A791C7E84
:10090700007F081202A3E4F53C7F80120F12120C3D
:100917003D8F3CE4F53DC3E53D94047480948050DD
:1009270014E53C25E025E0253D2413F8E6FF120FEA
:1009370044053D80E17FC0120F12E4F53DC3E53D5C
:10094700940774809480500E7434253DF8E6FF12A6
:070957000F44053D80E7227B
:10095E001208E7120B7E8B108A1189121202C9FF40
:10096E00120F44AB10AA11A9129000011202E2FF5D
:10097E00120F447F2D120F44AB10AA11A912900032
:10098E00021202E2FF120F44AB10AA11A91290003C
:10099E00031202E2FF120F447F2D120F44AB10AA76
:1009AE0011A9129000041202E2FF120F44AB10AA1A
:1009BE0011A9129000051202E2FF120F447FD0021D
:0209CE000F1206
:1004D100EF6408704BE55775F00A8412030FE55776
:1004E10075F00A84900001E5F0120321E55875F0DA
:1004F1000A84900002120321E55875F00A849000E5
:1005010003E5F0120321E55575F00A849000041209
:100511000321E55575F00A84900005E5F0120321E9
:10052100EF6447704BE55475F00A8412030FE554EC
:1005310075F00A84900001E5F0120321E55375F08E
:100541000A84900002120321E55375F00A84900099
:1005510003E5F0120321E55675F00A8490000412B8
:100561000321E55675F00A84900005E5F012032198
:010571002267
:10067C00EF640870399000011202E2FE1202C97593
:10068C00F00AA42EF5579000021202E275F00AA4AB
:10069C00FE9000031202E22EF5589000041202E2C2
:1006AC0075F00AA4FE9000051202E22EF555EF64D7
:1006BC004770399000011202E2FF1202C975F00A6C
:1006CC00A42FF5549000021202E275F00AA4FF90D8
:1006DC0000031202E22FF5539000041202E275F0AF
:0D06EC000AA4FF9000051202E22FF556222D
:1003DC008F13E4F51478157C00FD7BFF7A0A7924E1
:1003EC00FE7F081202A3781D7C007D007BFF7A0A39
:1003FC00792C7E007F081202A378257C007D007B7F
:10040C00FF7A0A79347E007F081202A3782D7C00D3
:10041C007D007BFF7A0A793C7E007F061202A37571
:10042C0033107B007A00792DAF131204D1AF33EF68
:10043C00640F70030204CCEF640E70030204CC7FD3
:10044C000F8F90EFB59003D38001C3400512077551
:10045C008F33AF337E00C3EF94107480948050536D
:10046C00C3EF940A74809480501D74152514F8E61B
:10047C00242DF8A63374152514F8E6242DF8E6245B
:10048C0030FF120F448014E53324F3600E1460180F
:10049C002402701F75331074258005753310741D7C
:1004AC002514F8E6F514800B7B007A00792DAF1338
:1004BC0012067CE51324802514FF120F1202043956
:0504CC007FD0020F12B9
:1007F1007511FF7FC5120F12AF11EF640E6067C351
:10080100EF9410748094805043E512701F0512E537
:100811005175F00A8485F051E51175F00AA425514E
:10082100F551FD7F45120EA97FC6801DE4F512E545
:100831005175F00A84F55175F00AA4F5512511F5A9
:1008410051FD7F45120EA97FC5120F127F0F8F90A8
:10085100EFB59003D38001C340071207758F118054
:0B086100977511FF80927FD0020F12EC
:10086C007511FF7FCC120F12AF11EF640E6067C3CE
:10087C00EF9410748094805043E512701F0512E5BC
:10088C005275F00A8485F052E51175F00AA42552D0
:10089C00F552FD7F4C120EA97FCD801DE4F512E5BB
:1008AC005275F00A84F55275F00AA4F5522511F52B
:1008BC0052FD7F4C120EA97FCC120F127F0F8F901E
:1008CC00EFB59003D38001C340071207758F1180D9
:0B08DC00977511FF80927FD0020F1271
:100AB2007BFF7A0979D5E4FF120E7F7BFF7A0979F1
:100AC200E67F40120E7FAD517F45120EA97BFF7A61
:100AD2000979EB7F48120E7FAD527F4C120EA9AFFF
:100AE20010EF640F6031EF640E602C7F0F8F90EF78
:100AF200B59003D38001C340071207758F1080039E
:100B02007510FFE510640C70031207F1E510640D17
:080B120070CD12086C80C822AE
:100FF100E557B55108E558B552037F01227F00221C
:100FE0005468652054656D70657261747572653AF8
:010FF0000000
:040EEB00025D010E95
:040FBA007F067E0030
:100FBE00D3EF9400EE94004007EF1F70F31E80F005
:010FCE002200
:100D93007F01EF602BEF6019D2B70000C2B77F323B
:100DA3007E00120FBED2B7120FBAA2B7E433FF8090
:100DB300E47F2D7E00120FBEA2B7B3E433FF80D2CF
:030DC300D2B72282
:100E5400AD077B08EBD39400748094804019D2B71B
:100E64000000C2B70000000000ED1392B7120FBAE1
:0B0E7400EDC313FD1B80DDD2B7002290
:100DC600E4FD7C08ECD3940074809480401FD2B775
:100DD6000000ED13FDC2B700000000D2B70000000E
:100DE6000030B703430580120FBA1C80D7D2B7AFC5
:020DF6000522D4
:1006F900120D937FCC120E547FBE120E54120DC6EA
:10070900AA07120DC6AC07120D937FCC120E547FA7
:1007190044120E54AF04EFFEEAFFD394FFEE940F98
:10072900400DEFF4FFEEF4FEEF2401FFE43EFEADD1
:1007390007AC06E4120119E4FBFA7920783F1200AC
:100749000E120152C3E55E9FFDE55D9EFCC3ED946B
:1007590064EC94004011EF955EFDEE955DFCC3EDF0
:0C0769009464EC940050048E5D8F5E22BE
:1005FE001206F9AE5DAF5E7C037DE81203437E000A
:10060E007F64CFCDCFCECCCE120343EF2430F51086
:10061E00AE5DAF5E7C007D641203437E007F0ACF29
:10062E00CDCFCECCCE120343EF2430F51175122E62
:10063E00AE5DAF5E7C007D0A120343ED2430F513F0
:10064E007FC0120F12AF10120F44AF11120F44AF32
:10065E0012120F44AF13120F447FDF120F447F4369
:0E066E00120F447BFF7A0F79E0E4FF020E7F4B
:100EF000D3EF9400EE940040147D6E7C00ED1D70E5
:0E0F0000011CED4C70F7EF1F70E61E80E3221F
:100DF8000102030A0405060B0708090E000C0D0F73
:100E0800E7D7B777EBDBBB7BEDDDBD7DEEDEBE7EE6
:100E18003031323334353637383955444C524551F0
:010E280000C9
:100775007590F07F147E00120EF0AF90EF64F0607C
:10078500EFAF9075900FAE90EE640F60F9AE90AD3F
:1007950090ED640F70F9EF4EFFE4FEEEC394107414
:1007A500809480500DEE900E0893B507028E340E9E
:1007B50080E9E534900DF893F5347E00C394107408
:1007C500809480500CC374809480400585343580B6
:1007D500031207757F147E00120EF07F0F8F90EFC6
:0C07E500B59003D38001C350F2AF352261
:100BE2008B138A1489157F0F8F90EFB59003D380F2
:100BF20001C34035751601120775AB13AA14A91566
:100C02001202C9FEB5070D9000021202E2FD3395F1
:100C1200E04D70249000027401120321900001EE55
:100C2200120321EF12030F800FE4F516AB13AA147F
:0B0C3200A915900002120321AF16224A
:040F0E00EF2480FF4D
:100F1200C2A6C2A58F807F017E00120EF0D2A77FEB
:090F2200017E00120EF0C2A722AC
:100F4400D2A6C2A58F807F017E00120EF0D2A77FA9
:090F5400017E00120EF0C2A7227A
:100FA400C2A77F38120F127F0F120F127F06120F83
:060FB400127F01020F1282
:0F1001008D13120F0EAF13120F447FD0020F1278
:100E7F008B148A158916120F0EAB14AA15A9161208
:100E8F0002C9FF6010120F4474012516F516E435E0
:0A0E9F0015F51580E47FD0020F1254
:100EA9008D13120F0EE51375F00A842430FF120F0B
:100EB90044E51375F00A84E5F02430FF120F447FEE
:040EC900D0020F1232
:10000E00EC4D6011E8497017ED33EC3304600DE4EC
:10001E00FCFFFEFD22E933E8330470F80201BE1244
:10002E00018958046009E4CC248150062850090245
:10003E0001C82840030201C5C0E0EB4A7044B980F4
:10004E0006D0E0FB0201B4EF4E701CBD8008EBFF42
:10005E00EAFEE9FD80EBE98DF0A4FEE5F00200F783
:10006E00E9CDF9EAFEEBFFEF89F0A4FCE5F0CE89CD
:10007E00F0A42EFFE435F0CD89F0A42DFEE435F08A
:10008E008067EF4E7005BD80D780C3EF8BF0A4ACB8
:10009E00F0EE8BF0A42CFCE435F0F8EF8AF0A42CF3
:1000AE00E5F038FCE433CB8DF0A42CFCE5F03BF806
:1000BE00EE8AF0A42CFCE5F038F8E433CF89F0A4F6
:1000CE002CFCE5F038CF3400CE89F0A42FFFE5F0FC
:1000DE003EFEE433C98DF0A42EFEE5F039CD8AF054
:1000EE00A42FFFE5F03EFEE43DFD33D0E0FB5007CC
:1000FE000BBB000F0201C8EC2CFCEF33FFEE33FEFE
:06010E00ED33FD0201A02B
:1001140075F020800E75F010800575F0087D007E66
:10012400007F003392D530D5031203CEEC33401058
:10013400EF33FFEE33FEED33FDEC33FCD5F0ED226F
:0E014400E5F0247EA2D513CC92E7CDCEFF22AB
:10015200EDD2E7CD33EC3392D524814006E4FFFEA5
:10016200FDFC22FCE4CFCECDCC24E0501174FF8004
:10017200EDC3CC13CCCD13CDCE13CECF13CF0470A1
:07018200F030D5DE0203CED0
:10018900E9D2E7C933E833F892D5EDD2E7CD33ECBC
:0701990033FC5002B2D52235
:1001A000EC30E7100FBF000C0EBE00080DBD0004C0
:1001B0000BEB6014A2D5EB13FCED92E7FD2274FF6C
:1001C000FCFDFEFF22E480F8A2D574FF13FC7D80C5
:0301D000E480EFD9
:10057E00020F2BE493A3F8E493A34003F68001F259
:10058E0008DFF48029E493A3F85407240CC8C3337E
:10059E00C4540F4420C8834004F456800146F6DF4D
:1005AE00E4800B0102040810204080900ECDE47E02
:1005BE00019360BCA3FF543F30E509541FFEE49342
:1005CE00A360010ECF54C025E060A840B8E493A309
:1005DE00FAE493A3F8E493A3C8C582C8CAC583CA34
:1005EE00F0A3C8C582C8CAC583CADFE9DEE780BEEC
:010EEF000002
:1001D300E709F608DFFA8046E709F208DFFA803E0E
:1001E30088828C83E709F0A3DFFA8032E309F608FB
:1001F300DFFA8078E309F208DFFA807088828C8363
:10020300E309F0A3DFFA806489828A83E0A3F60816
:10021300DFFA805889828A83E0A3F208DFFA804CF0
:1002230080D280FA80C680D4806980F280338010C7
:1002330080A680EA809A80A880DA80E280CA803330
:1002430089828A83ECFAE493A3C8C582C8CCC583A8
:10025300CCF0A3C8C582C8CCC583CCDFE9DEE78078
:100263000D89828A83E493A3F608DFF9ECFAA9F0F7
:10027300EDFB2289828A83ECFAE0A3C8C582C8CC4D
:10028300C583CCF0A3C8C582C8CCC583CCDFEADE66
:10029300E880DB89828A83E493A3F208DFF980CCC8
:1002A30088F0EF60010E4E60C388F0ED2402B404C1
:1002B3000050B9F582EB2402B4040050AF23234568
:0602C30082239002237368
:1002C900BB010689828A83E0225002E722BBFE0233
:0902D900E32289828A83E4932266
:1002E200BB010CE58229F582E5833AF583E02250D1
:1002F20006E92582F8E622BBFE06E92582F8E2221B
:0D030200E58229F582E5833AF583E4932234
:10030F00BB010689828A83F0225002F722BBFE01CD
:02031F00F322C7
:10032100F8BB010DE58229F582E5833AF583E8F012
:10033100225006E92582C8F622BBFE05E92582C8BE
:02034100F222A6
:10034300BC000BBE0029EF8DF084FFADF022E4CC9E
:10035300F875F008EF2FFFEE33FEEC33FCEE9DEC67
:10036300984005FCEE9DFE0FD5F0E9E4CEFD22EDAD
:10037300F8F5F0EE8420D21CFEADF075F008EF2FF7
:10038300FFED33FD4007985006D5F0F222C398FDE8
:050393000FD5F0EA2285
:10039800C2D5EC30E709B2D5E4C39DFDE49CFCEE80
:1003A80030E715B2D5E4C39FFFE49EFE120343C3B2
:1003B800E49DFDE49CFC800312034330D507C3E4AD
:0603C8009FFFE49EFE22EF
:0E03CE00C3E49FFFE49EFEE49DFDE49CFC2240
:00000001FF
