:10131200616C61726D0073746F702D7761746368B4
:101322000074696D657200507265737320616E7925
:1013320020627574746F6E746F2063616E63656C86
:0813420020616C61726D210055
:1013B7000745010203040506000C2C00001200007B
:0713C70000120000001200FB
:10001E00758911758CDCE4F58A758DFC758B66D24D
:10002E00AFD2ABD2A9D28ED28CF539F53AF52BF5EB
:10003E002AF529F528F527F526F525F524C208C257
:10004E0004C203C206C207C201C205C202C200F543
:10005E004DF53BF538F544F54312134AE538600388
:10006E000204CF30020512134AC202200503020217
:10007E00E6743C2543F806E54364067057E542C432
:10008E00540F75F00AA424D0FFE542540F2FFFEF52
:10009E0054037021F51674452516F8060674452589
:1000AE0016F8E6D39406400474F926F60516E516FE
:1000BE00B407E3801FE4F51674452516F80674455B
:1000CE002516F8E6D39406400474F926F60516E5CF
:1000DE0016B407E4E53C540FD394094009533CF0A1
:1000EE007410253CF53CE53CD394594003E4F53CB3
:1000FE00E53D540FD394094009533DF07410253D4E
:10010E00F53DE53DD394594003E4F53DE53E540FEE
:10011E00D394094009533EF07410253EF53EE53E5A
:10012E00D394234003E4F53EE53F540FD3940940A6
:10013E0009533FF07410253FF53FE53FD39431400E
:10014E0003753F01E53FD394304003753F01E5420F
:10015E00C4540F75F00AA424D0FFE5F03407FEE571
:10016E0042540F7C002FFFEF5403700EE540B40293
:10017E0009E53FD394294011800CE540B4020AE50D
:10018E003FD394284003753F01E540540FD39409A3
:10019E0040095340F074102540F540E540D39412C9
:1001AE004003754001E54064016006E5406410704F
:1001BE001AE53FC4540F75F00AA47C002545FFECE8
:1001CE0035F0FEE53F540F2F0202B6E54064057090
:1001DE001CE53FC4540F75F00AA4FFE53F540F7C95
:1001EE00002FFFEC35F0FEEF25460202B6E5406427
:1001FE0008701CE53FC4540F75F00AA4FFE53F5488
:10020E000F7C002FFFEC35F0FEEF25470202B6E51E
:10021E00406402600CE54064036006E540641170C2
:10022E001BE53FC4540F75F00AA4FFE53F540F7C45
:10023E00002FFFEC35F0FEEF2548806CE54064069C
:10024E00701BE53FC4540F75F00AA4FFE53F540F31
:10025E007C002FFFEC35F0FEEF2549804BE5406426
:10026E00096006E5406412701BE53FC4540F75F03B
:10027E000AA4FFE53F540F7C002FFFEC35F0FEEF94
:10028E00254A8024E54064046005E540B40724E572
:10029E003FC4540F75F00AA4FFE53F540F7C002FA6
:1002AE00FFEC35F0FEEF254BFFEC3EFE7D07121105
:1002BE00088D41E5417003754107E542540FD39413
:1002CE000940095342F074102542F542E542D39499
:1002DE00994003E4F542C2053000031213E11214F3
:1002EE002330050302006A7F8112000E30001B309E
:1002FE000118E543B406137F201214477F20121411
:10030E00477F201214477F20801C7F321214477FB4
:10031E0030121447E542C4540F2430FF121447E53F
:10032E0042540F2430FF1214477F2D121447300011
:10033E001130010EE543B404097F201214477F20CB
:10034E008012E540C4540F2430FF121447E5405488
:10035E000F2430FF1214477F2D1214473000113036
:10036E00010EE543B403097F201214477F2080124B
:10037E00E53FC4540F2430FF121447E53F540F24B9
:10038E0030FF1214477F28121447E54114B40700BA
:10039E0040030204249003B175F003A4C58325F035
:1003AE00C583730203C60203CF0203DD0203EB0211
:1003BE0003F90204070204157F731214477F758038
:1003CE00077F6D1214477F6F1214477F6E80447F34
:1003DE00741214477F751214477F6580367F77122B
:1003EE0014477F651214477F6480287F7412144768
:1003FE007F681214477F75801A7F661214477F72CA
:10040E001214477F69800C7F731214477F61121498
:10041E00477F741214477F291214477FC412000EAF
:10042E0030001130010EE543B402097F201214474B
:10043E007F208012E53EC4540F2430FF121447E58E
:10044E003E540F2430FF1214477F3A1214473000E7
:10045E001130010EE543B401097F201214477F20AD
:10046E008012E53DC4540F2430FF121447E53D546D
:10047E000F2430FF1214477F3A1214473000103009
:10048E00010DE54370097F201214477F208012E58D
:10049E003CC4540F2430FF121447E53C540F243053
:1004AE00FF121447E52F6401600FE5336401600904
:1004BE00E5376401600302006A7F011214470200EF
:1004CE006AE5386401600302068730020512134A9A
:1004DE00C202200503020592E54425E025E0242C06
:1004EE002543F806E54425E025E0242CF8E6540FD4
:1004FE00D394094011741026F6E54425E025E02436
:10050E002CF8E654F0F6E54425E025E0242CF8E638
:10051E00D394594002E4F6E54425E025E0242DF875
:10052E00E6FF540FD394094011EF54F0F6E544253D
:10053E00E025E0242DF8741026F6E54425E025E0AC
:10054E00242DF8E6D394594002E4F6E54425E0253F
:10055E00E0242EF8E6FF540FD394094011EF54F027
:10056E00F6E54425E025E0242EF8741026F6E54441
:10057E0025E025E0242EF8E6D394234002E4F6C2CB
:10058E00050204CF7F8512000EE4F516E5169013D2
:10059E001293FF1214470516E516C3940540EDE5B8
:1005AE00442430FF1214477FC412000E3000113065
:1005BE00010EE543B402097F201214477F208022EA
:1005CE00E54425E025E0242EF8E6C4540F2430FF40
:1005DE00121447E54425E025E0242EF8E6540F24B6
:1005EE0030FF1214477F3A12144730001130010EBB
:1005FE00E543B401097F201214477F208022E54491
:10060E0025E025E0242DF8E6C4540F2430FF121403
:10061E0047E54425E025E0242DF8E6540F2430FF6D
:10062E001214477F3A12144730001030010DE54383
:10063E0070097F201214477F208022E54425E02593
:10064E00E0242CF8E6C4540F2430FF121447E5447E
:10065E0025E025E0242CF8E6540F2430FF12144731
:10066E00E54425E025E0242FF8E6B40104E4FF80FC
:10067E00027F201214470204CFE5386402600302A1
:10068E0008C430020512134AC202E47B107A27F91D
:10069E00F8AF27AE26AD25AC24121199AC00AD01F2
:1006AE00AE02AF03E47B64FAF9F8121199E47B3BD6
:1006BE00FAF9F8C312122B502FC3E5279470F527C1
:1006CE00E5269417F526E5259400F525E5249400F6
:1006DE00F524E5272410F527E5263427F526E435FD
:1006EE0025F525E43524F5247B407A42790F7800F0
:1006FE00AF27AE26AD25AC24121199AC00AD01AEDC
:10070E0002AF03E47B107A27F9F8121199E47B3BD0
:10071E00FAF9F8C312122B5030C3E52794C0F5270F
:10072E00E5269427F526E5259409F525E52494007C
:10073E00F524E5272440F527E5263442F526E52560
:10074E00340FF525E43524F5247F8312000EE4F5ED
:10075E0016E51690131893FF1214470516E516C3E7
:10076E00940A40ED7FC212000E7F2D1214477B803B
:10077E007A9679987800AF27AE26AD25AC24121163
:10078E0099EF2430FF1214477B807A96799878007F
:10079E00AF27AE26AD25AC24121199AC00AD01AE3B
:1007AE0002AF037B407A42790F7800121199EF2441
:1007BE0030FF1214477F3A1214477B407A42790F6A
:1007CE007800AF27AE26AD25AC24121199AC00AD42
:1007DE0001AE02AF037BA07A8679017800121199DF
:1007EE00EF2430FF1214477BA07A8679017800AF90
:1007FE0027AE26AD25AC24121199AC00AD01AE0288
:10080E00AF03E47B107A27F9F8121199EF2430FF29
:10081E001214477F3A121447E47B107A27F9F8AF87
:10082E0027AE26AD25AC24121199AC00AD01AE0257
:10083E00AF03E47BE87A03F9F8121199EF2430FF45
:10084E00121447E47BE87A03F9F8AF27AE26AD25FC
:10085E00AC24121199AC00AD01AE02AF03E47B647F
:10086E00FAF9F8121199EF2430FF1214477F3A1259
:10087E001447E47B64FAF9F8AF27AE26AD25AC2415
:10088E00121199AC00AD01AE02AF03E47B0AFAF986
:10089E00F8121199EF2430FF121447E47B0AFAF98B
:1008AE00F8AF27AE26AD25AC24121199EB2430FFFC
:1008BE00121447020687E53864036003020C713098
:1008CE00020512134AC202200503020A23E54370F1
:1008DE0006E52B24018009E543B4010BE52B2464C6
:1008EE00F52BE4352A800FE543B40211E52B2410D5
:1008FE00F52BE52A3427F52AE435298015E543B48E
:10090E000317E52B2440F52BE52A3442F52AE52979
:10091E00340FF529E43528F528E47B107A27F9F809
:10092E00AF2BAE2AAD29AC28121199AC00AD01AE99
:10093E0002AF03E47B64FAF9F8121199E47B3BFAF7
:10094E00F9F8C312122B502FC3E52B9470F52BE53B
:10095E002A9417F52AE5299400F529E5289400F53F
:10096E0028E52B2410F52BE52A3427F52AE4352922
:10097E00F529E43528F5287B407A42790F7800AFC7
:10098E002BAE2AAD29AC28121199AC00AD01AE02E6
:10099E00AF03E47B107A27F9F8121199E47B3BFA46
:1009AE00F9F8C312122B5030C3E52B94C0F52BE58A
:1009BE002A9427F52AE5299409F529E5289400F5C6
:1009CE0028E52B2440F52BE52A3442F52AE5293477
:1009DE000FF529E43528F5287B407A42790F780007
:1009EE00AF2BAE2AAD29AC28121199E47B63FAF92C
:1009FE00F8C312122B5019C3E52B9400F52BE52AE0
:100A0E0094E1F52AE52994F5F529E5289405F528CC
:100A1E00C2050208C4E47B107A27F9F8AF2BAE2A80
:100A2E00AD29AC28121199AC00AD01AE02AF03E4B2
:100A3E007B64FAF9F8121199E47B3BFAF9F8C312C8
:100A4E00122B5019C3E52B94A0F52BE52A940FF524
:100A5E002AE5299400F529E5289400F5287B407AAB
:100A6E0042790F7800AF2BAE2AAD29AC281211991E
:100A7E00AC00AD01AE02AF03E47B107A27F9F81299
:100A8E001199E47B3BFAF9F8C312122B5019C3E506
:100A9E002B9480F52BE52A941AF52AE5299406F570
:100AAE0029E5289400F5287F8512000EE4F516E559
:100ABE001690132393FF1214470516E516C39405DB
:100ACE0040ED7FC212000E7F2D1214473000113000
:100ADE00010EE543B403097F201214477F208044A2
:100AEE007B807A9679987800AF2BAE2AAD29AC2808
:100AFE00121199EF2430FF1214477B807A96799861
:100B0E007800AF2BAE2AAD29AC28121199AC00ADEE
:100B1E0001AE02AF037B407A42790F780012119931
:100B2E00EF2430FF1214477F3A1214473000113071
:100B3E00010EE543B402097F201214477F20805630
:100B4E007B407A42790F7800AF2BAE2AAD29AC28C4
:100B5E00121199AC00AD01AE02AF037BA07A86797B
:100B6E00017800121199EF2430FF1214477BA07AFE
:100B7E008679017800AF2BAE2AAD29AC28121199D7
:100B8E00AC00AD01AE02AF03E47B107A27F9F81288
:100B9E001199EF2430FF1214477F3A121447300098
:100BAE001130010EE543B401097F201214477F2056
:100BBE008052E47B107A27F9F8AF2BAE2AAD29AC20
:100BCE0028121199AC00AD01AE02AF03E47BE87AB6
:100BDE0003F9F8121199EF2430FF121447E47BE861
:100BEE007A03F9F8AF2BAE2AAD29AC28121199ACC5
:100BFE0000AD01AE02AF03E47B64FAF9F81211996D
:100C0E00EF2430FF1214477F3A1214473000103091
:100C1E00010DE54370097F201214477F20803EE4CA
:100C2E007B64FAF9F8AF2BAE2AAD29AC28121199D4
:100C3E00AC00AD01AE02AF03E47B0AFAF9F8121173
:100C4E0099EF2430FF121447E47B0AFAF9F8AF2B20
:100C5E00AE2AAD29AC28121199EB2430FF1214479D
:100C6E000208C4E5386404600302006A300205120B
:100C7E00134AC2027F8012000EE4F516E516901399
:100C8E002993FF1214470516E516C3941040ED7F05
:100C9E00C012000E751610E516C3942050C5E51649
:0C0CAE0090132993FF121447051680EBE9
:03000B00020FAB36
:100FAB00C0E0C0F0C083C082C0D075D000C000C00C
:100FBB0001C002C003C004C005C006C007758CDCAD
:100FCB00758A00300714053BE53B6464703CE538DB
:100FDB0064036036B201D2028023300025053BE565
:100FEB003BB40A04E5386013E53BB43C1DE53864BB
:100FFB00016008E538B4031220070FB201753B00FE
:10100B008008753B00C201754300300334E527248B
:10101B0001F527E43526F526E43525F525E43524B9
:10102B00F5247F7C7EB67DEF7C05AB27AA26A92510
:10103B00F8C312122B700AC203F527F526F525F516
:10104B0024300431E52B24FFF52BE52A34FFF52A58
:10105B00E52934FFF529E52834FFF528E4FFFEFDEB
:10106B00FCAB2BAA2AA929A828C312122B7006C2E3
:10107B0004D207D206E538B4030820080520000285
:10108B00D20030075D30060CC2A70523E523702480
:10109B00052280200523E5237002052264014522E9
:1010AB00700385384C300107753804C2A78005855D
:1010BB004C38D2A7E523B4F410E522B4010B30066B
:1010CB0008C208C207C2068011E523B4B814E52292
:1010DB00B40B0FC207854C38D202D2A7752200750C
:1010EB002300D007D006D005D004D003D002D00106
:0D10FB00D000D0D0D082D083D0F0D0E03231
:03001B00020CBA1A
:100CBA00C0E0C0F0C083C082C0D075D000C000C000
:100CCA0001C002C003C004C005C006C007C28E200E
:100CDA009067E54DD394145002054DE54D641460B8
:100CEA0003020F2B300709E53864036003020EA8DC
:100CFA00E538701D30001AE543B404060543054380
:100D0A0080020543E543D394065003020F2B020DDC
:100D1A00A1E538B4010F30000CE543B40202807734
:100D2A000543020F2BD202E538B40308753800C216
:100D3A0000020F2B0538020F2B209166E54DD39444
:100D4A00145002054DE54D64146003020F2B300761
:100D5A0009E53864036003020EA8E5386003B401AC
:100D6A0005B200020F2BE538B40218E4FFFEFDFCC1
:100D7A00AB27AA26A925A824C312122B7005D203D1
:100D8A00020F2BE53864036003020F2B20000302D5
:100D9A000F2BE543B40306754300020F2B054302EC
:100DAA000F2B309203020E87E54DD394145004059D
:100DBA004D800FE54DD394144008053AE53A700288
:100DCA000539E54D64146003020E52300709E5380F
:100DDA0064036003020EA8E5387008300005D205E6
:100DEA00020F2BE538B40115200012E544C3940222
:100DFA0050050544020F2B754400020F2BE538B449
:100E0A000108300005D205020F2BE538B40218E4B8
:100E1A00FFFEFDFCAB27AA26A925A824C312122B84
:100E2A006005B203020F2BE538B40308200805D287
:100E3A0005020F2BE53864036003020F2B20080319
:100E4A00020F2BB204020F2BE53A64407004E53915
:100E5A0064016003020F2BE5387008300005D205E3
:100E6A00020F25E538B40108300005D205020F2526
:100E7A00E538B40305200802D205020F2530930392
:100E8A00020F22E54DD394145002054DE54D64142A
:100E9A006003020F2B300711E5386403600BC207A9
:100EAA00854C38D202D2A78078E538B401192000DF
:100EBA0016E54425E025E0242FF8E670047F01803A
:100ECA00027F00A607805AE538B4021120030E7586
:100EDA0027007526007525007524008044E538B47E
:100EEA00031E20081BE4FFFEFDFCAB2BAA2AA9293E
:100EFA00A828C312122B6008D204D208C20080218B
:100F0A00E538B4031C200419752B00752A007529CD
:100F1A0000752800C2088009754D00753900753AB8
:100F2A0000E52FB4011A200017E52EB53E12E52D73
:100F3A00B53D0DE52CB53C08E52345227002D207E4
:100F4A00E533B4011A200017E532B53E12E531B592
:100F5A003D0DE530B53C08E52345227002D207E590
:100F6A0037B4011A200017E536B53E12E535B53D0E
:100F7A000DE534B53C08E52345227002D207758D8C
:100F8A00FC758B66D28ED007D006D005D004D0036C
:100F9A00D002D001D000D0D0D082D083D0F0D0E01F
:010FAA003214
:0E14390081838587898B8D80828486888A8C4A
:1012C800C2A300C2A400D2A300E4FDEF1392A5EFCD
:1012D800C313FFD2A400C2A4000DBD08EE00E4FDB4
:1012E800A2A5E433FFC43333335480FCEEC3134C5C
:1012F800FED2A400C2A4000DBD08E5C2A300D2A47A
:0913080000C2A500D2A500AF0649
:0113110022B9
:10138200C2A300C2A400D2A300E4FEEF1392A5EF11
:10139200C313FFD2A400C2A4000EBE08EEE4FEED09
:1013A2001392A5EDC313FDD2A400C2A4000EBE0881
:0413B200EEC2A300E4
:0113B6002214
:1013E100E4FD7F8E121382E4FCEC90144093FF74B1
:1013F1003C2CF8E6FD1213820CBC07ED7D807F8E3C
:0314010002138251
:10142300E4FBEB90143993FF1212C8743C2BF8A61B
:05143300070BBB07EDF3
:011438002291
:1013CE00070800040E1F0E0400070F0008141C145B
:0213DE0000000D
:0D140400C2A18F807F01121411D2A27F05BA
:10141100EFD39400400B7E047D71DDFEDEFA1F8068
:01142100EFDB
:0114220022A7
:0A000E00C2A2C2A0121404C2A22272
:0A144700C2A2D2A0121404C2A22215
:10134A007F3812000E7F0C12000E7F0612000E7FED
:10135A000112000E7F4012000EE4FC74082CF8E61D
:10136A00FF1214470CBC07F3E4FC740F2CF8E6FFD9
:07137A001214470CBC07F33D
:011381002249
:0300000002123CAD
:0C123C00787FE4F6D8FD75814D02128326
:10110800BC000BBE0029EF8DF084FFADF022E4CCCB
:10111800F875F008EF2FFFEE33FEEC33FCEE9DEC94
:10112800984005FCEE9DFE0FD5F0E9E4CEFD22EDDA
:10113800F8F5F0EE8420D21CFEADF075F008EF2F24
:10114800FFED33FD4007985006D5F0F222C398FD15
:051158000FD5F0EA22B2
:10115D0075F008758200EF2FFFEE33FECD33CDCC49
:10116D0033CCC58233C5829BED9AEC99E5829840CC
:10117D000CF582EE9BFEED9AFDEC99FC0FD5F0D6A9
:10118D00E4CEFBE4CDFAE4CCF9A88222B800C1B9D3
:10119D000059BA002DEC8BF084CFCECDFCE5F0CB11
:1011AD00F97818EF2FFFEE33FEED33FDEC33FCEB4A
:1011BD0033FB10D703994004EB99FB0FD8E5E4F905
:1011CD00FA227818EF2FFFEE33FEED33FDEC33FCF2
:1011DD00C933C910D7059BE99A4007EC9BFCE99AE6
:1011ED00F90FD8E0E4C9FAE4CCFB2275F010EF2F2B
:1011FD00FFEE33FEED33FDCC33CCC833C810D7072B
:10120D009BEC9AE899400AED9BFDEC9AFCE899F865
:0E121D000FD5F0DAE4CDFBE4CCFAE4C8F922F8
:10122B00EB9FF5F0EA9E42F0E99D42F0E89C45F019
:01123B002290
:1012480002001EE493A3F8E493A34003F68001F29E
:1012580008DFF48029E493A3F85407240CC8C333A7
:10126800C4540F4420C8834004F456800146F6DF76
:10127800E4800B01020408102040809013B7E47E3C
:10128800019360BCA3FF543F30E509541FFEE4936B
:10129800A360010ECF54C025E060A840B8E493A332
:1012A800FAE493A3F8E493A3C8C582C8CAC583CA5D
:1012B800F0A3C8C582C8CAC583CADFE9DEE780BE15
:0113E000000C
:00000001FF
