:100ECB00120C6E120E05120F0712044F120E49125E
:040EDB000DAF80F5E2
:0E0F180081838587898B8D80828486888A8C70
:100D7A00C2A300C2A500D2A300E4FEEF1392A4EF1F
:100D8A00C313FFD2A500C2A5000EBE08EEE4FEED15
:100D9A001392A4EDC313FDD2A500C2A5000EBE088E
:040DAA00EEC2A300F2
:010DAE002222
:100CBC00C2A300C2A500D2A300E4FDEF1392A4EFDF
:100CCC00C313FFD2A500C2A5000DBD08EE00E4FDC4
:100CDC00A2A4E433FFC43333335480FCEEC3134C6F
:100CEC00FED2A500C2A5000DBD08E5C2A300D2A589
:090CFC0000C2A400D2A400AF065E
:010D050022CB
:100E0500E4FD7F8E120D7AE4FCEC900F1F93FF74C6
:100E1500122CF8E6FD120D7A0CBC07ED7D807F8E55
:030E2500020D7A41
:100EB500E4FBEB900F1893FF120CBC74122BF8A6F1
:050EC500070BBB07ED67
:010ECA002205
:100DAF00E5086028E54265127022E543B5131DE59D
:100DBF0044B51418E545B51513E546B5160EE547C8
:0D0DCF00B51709E548B51804C2A1C2A0225D
:090F260057656C636F6D652100D5
:100E6A00C292C290C2918F807F017E00120E85D2FB
:0B0E7A00927F057E00120E85C29222BE
:060E2800C4540F2430FF4A
:100E2E00C292D290C2918F807F017E00120E85D227
:0B0E3E00927F057E00120E85C29222FA
:100C6E0078597C007D007BFF7A0F79267E007F0904
:100C7E001203907F38120E6A7F0C120E6A7F0612D4
:100C8E000E6A7F01120E6A7F84120E6AE4F55874A2
:100C9E00592558F8E6FF120E2E0558E558C394084C
:0E0CAE0040ED7FD07E07120E857F01020E6A98
:100856007FC0120E6AE514120E28E514120E297FC7
:100866003A120E2EE513120E28E513120E297F3AC0
:10087600120E2EE512120E28E512120E297F801294
:100886000E6A7F32120E2E7F30120E2EE518120ED1
:1008960028E518120E297F2D120E2EE516120E28A7
:1008A600E516120E297F2D120E2EE515120E28E5DD
:1008B60015120E297F8B120E6AE5175407FF14B422
:1008C600070040030209979008DB75F003A4C5836F
:1008D60025F0C583730208F00209090209210209FD
:1008E60039020951020969020981E4F558743C2567
:1008F60058F8E6FF120E2E0558E558C3940540ED4C
:10090600020997E4F55874342558F8E6FF120E2EBE
:100916000558E558C3940540ED8076E4F558740C07
:100926002558F8E6FF120E2E0558E558C3940540E3
:10093600ED805EE4F55874272558F8E6FF120E2E72
:100946000558E558C3940540ED8046E4F558742EE5
:100956002558F8E6FF120E2E0558E558C3940540B3
:10096600ED802EE4F55874212558F8E6FF120E2E78
:100976000558E558C3940540ED8016E4F5587452C1
:100986002558F8E6FF120E2E0558E558C394054083
:10099600ED7FCE120E6AE50860047F4F80027F432A
:0309A600120E2E00
:0109A900222B
:1006E7007FC0120E6AE544120E28E544120E297FD8
:1006F7003A120E2EE543120E28E543120E297F3AD1
:10070700120E2EE542120E28E542120E297F8012A4
:100717000E6A7F32120E2E7F30120E2EE548120E11
:1007270028E548120E297F2D120E2EE546120E28B7
:10073700E546120E297F2D120E2EE545120E28E5ED
:1007470045120E297F8B120E6AE5475407FF14B432
:100757000700400302082890076C75F003A4C583BF
:1007670025F0C5837302078102079A0207B20207C1
:10077700CA0207E20207FA020812E4F558743C2598
:1007870058F8E6FF120E2E0558E558C3940540EDBC
:10079700020828E4F55874342558F8E6FF120E2E9F
:1007A7000558E558C3940540ED8076E4F558740C78
:1007B7002558F8E6FF120E2E0558E558C394054054
:1007C700ED805EE4F55874272558F8E6FF120E2EE3
:1007D7000558E558C3940540ED8046E4F558742E56
:1007E7002558F8E6FF120E2E0558E558C394054024
:1007F700ED802EE4F55874212558F8E6FF120E2EE9
:100807000558E558C3940540ED8016E4F558745231
:100817002558F8E6FF120E2E0558E558C3940540F3
:10082700ED7FCB120E6AE4F558740A2558F8E6FFF7
:10083700120E2E0558E558C3940140ED7FCE120ED7
:0E0847006AE50860047F4F80027F43120E2E88
:010855002280
:0409AA008E588F597B
:1009AE007F80120E6AE4F55A741B255AF8E6FF1280
:1009BE000E2E055AE55AC3940540EDC3E5586480E2
:1009CE00948050137549B0E5591559700215586346
:1009DE0059FF6358FF800375492BAC58AD59EC1283
:1009EE0002068F5E8E5D8D5C8C5BE4FFFE7DC87CA7
:1009FE0040AB5EAA5DA95CA85B1200FBE4FBFAF9B2
:100A0E00783F12000A12023F8E588F59AE58AF59D6
:100A1E007C277D101203B6EF4430F54AAE58AF591D
:100A2E007C277D101203B67E037FE8CFCDCFCECCD0
:100A3E00CE1203B6EF4430F54BAE58AF597C037D62
:100A4E00E81203B67E007F64CFCDCFCECCCE12039C
:100A5E00B6EF4430F54CAE58AF597C007D641203AE
:100A6E00B67E007F0ACFCDCFCECCCE1203B6EF44EA
:100A7E0030F54EAE58AF597C007D0A1203B6ED44E8
:100A8E0030F54F754D2E7550DF755143E4F55A74A0
:100A9E0049255AF8E6FF120E2E055AE55AC3940957
:020AAE0040ED19
:010AB0002223
:100E4900E5197003120EB5E52D24FE600A14600D34
:100E59002402700C020856120E9E0209AA1206E715
:010E69002266
:100C0E00071200000808010320074200010808012E
:100C1E000320063C204D6F6E2E000634547565730E
:100C2E002E00060C205765642E0006275468757238
:100C3E002E00062E204672692E0006212053617466
:100C4E002E0006522053756E2E00061B54656D70D5
:060C5E003A00020A410009
:100F0700E4F51AF519F509F508F53B752D01F53ADC
:010F170022B7
:090C640001620101630101640158
:020AB1008F585C
:100AB300C2B2D2B3D2B4E5626401702530B5063058
:100AC300B60320B71C7F0A7E00120E85E4F5622070
:100AD300B5037F012220B6037F042220B70F7F07CF
:100AE3002230B50930B60630B703756201E55860A8
:100AF30003756201C2B3D2B2D2B4E5636401702557
:100B030030B50630B60320B71C7F0A7E00120E856F
:100B1300E4F56320B5037F022220B6037F0522207C
:100B2300B70F7F082230B50930B60630B7037563B7
:100B330001E5586003756301C2B4D2B2D2B3E56470
:100B43006401702530B50630B60320B71C7F0A7EDA
:100B530000120E85E4F56420B5037F032220B6035B
:100B63007F062220B70F7F092230B50930B6063041
:0E0B7300B703756401E55860037564017F00E7
:010B81002251
:10044F007F01120AB18F1AE51A14B4090040030292
:10045F0006E690046F75F003A4C58325F0C583737A
:10046F0002048A02049502059602069C0206AB025C
:10047F0006C10206E00206E30206E3B2A06319FF1B
:10048F00E4F509020E05B2A0E519607A7412250988
:10049F00F80674122509F8E6540FD3940940047432
:1004AF000626F674122509F8E6C394604008E5099C
:1004BF0094025002E4F674122509F8E6C39424401E
:1004CF0007E509B40202E4F674122509F8E6C394AD
:1004DF00324007E509B40302760174122509F8E6E4
:1004EF00C394134007E509B4040276017412250979
:1004FF00F8E6C3940850030206E6E50964056003B5
:10050F000206E6760122E50870030206E67442252C
:10051F0009F80674422509F8E6540FD394094004EC
:10052F00740626F674422509F8E6C394604008E580
:10053F000994025002E4F674422509F8E6C39424A4
:10054F004007E509B40202E4F674422509F8E6C350
:10055F0094324007E509B40302760174422509F885
:10056F00E6C394134007E509B404027601744225EB
:10057F0009F8E6C3940850030206E6E5096405602E
:10058F00030206E6760122B2A0E5197003020621E6
:10059F0074122509F81674122509F8E6540FD3942E
:1005AF0009400474FA26F674122509F8E6C394601C
:1005BF004008E50994025002765974122509F8E6AD
:1005CF00C394244007E509B4020276237412250967
:1005DF00F8E6FFC394325003EF7007E509B4030246
:1005EF00763174122509F8E6FFC394135003EF70A8
:1005FF0007E509B40402761274122509F8E6C394CC
:10060F000850030206E6E509640560030206E67674
:10061F000722E50870030206E674422509F81674EE
:10062F00422509F8E6540FD39409400474FA26F6CC
:10063F0074422509F8E6C394604008E50994025016
:10064F0002765974422509F8E6C394244007E50958
:10065F00B40202762374422509F8E6C394324007A8
:10066F00E509B40302763174422509F8E6C3941301
:10067F004007E509B40402761274422509F8E6C36F
:10068F0094084053E5096405704D760722B2A00522
:10069F0009E509C39407403FE4F50922B2A07F01A1
:1006AF00120E6A052DC3E52D648094844029752DA3
:1006BF000122B2A0E52DB403186308FFE4F5097F0A
:1006CF00CE120E6AE50860047F4F80027F43020E50
:0806DF002EB2A022B2A02222DB
:100E8500D3EF9400EE9400400F7DC77C01DCFEDDBE
:080E9500FAEF1F70EB1E80E86C
:010E9D002232
:100DDC00C293755946AF591559EF70F9D293F5591D
:100DEC003093137F0A7E00120E850559E559D39472
:080DFC000540ED7F00227F019C
:010E040022CB
:100D4400E4FBFAC293055AE55A70020559EF13926F
:100D540093755900755A06E55A155AAC597002151F
:100D6400594C70F3D293EFC313FF0BBB00010AEB92
:050D740064084A70CE86
:010D79002257
:100D06007D087C00C2930FBF0000D2930FBF000086
:100D16000FBF0000A293E433C43333335480FBE99E
:100D2600C3134BF97E007F04EF1FAA0670011E4A0B
:0D0D360070F6ED1D70011CED4C70C9AF0191
:010D4300228D
:100EDF00120DDC7F017E00120E857FCC120D447F38
:040EEF0044020D4468
:100EF300120DDC7F017E00120E857FCC120D447F24
:040F0300BE020D44D9
:100E9E00E4FFFE120EDF120EF3120D068F58120D26
:060EAE0006EFFEE558FF0F
:010EB400221B
:100003000202ABE86480F8E933E83360110460F07E
:10001300ED33EC337009E8FCE9FDEAFEEBFF220463
:1000230060DED3EB9FEA9EE99DE8C2E78CF0C2F75E
:1000330095F0400CE8CCF8E9CDF9EACEFAEBCFFB2A
:1000430012027685D0F05804700320D5B3E804700B
:10005300075002B2D50202B592D5EC0460F7E4CCA6
:10006300C0E0C398F8603B94186008400DD0E0FBF3
:1000730002028DE4FBFAC9FC8028E830E406E4C9F7
:10008300FBE4CAFCE830E305E4C9CACBFCE8540747
:100093006010F8C3E913F9EA13FAEB13FBEC13FC52
:1000A300D8F130F52FC3E49CFCEF9BFFEE9AFEEDF5
:1000B30099FDD0E0FBEF4E4D4C701222DB030202A0
:1000C300B2EC2CFCEF33FFEE33FEED33FDED30E706
:1000D300EB02028DEF2BFFEE3AFEED39FDD0E0FB94
:1000E30050130BBB00030202B5ED13FDEE13FEEF3D
:0800F30013FFEC13FC02028D67
:1000FB00EC4D6011E8497017ED33EC3304600DE4FF
:10010B00FCFFFEFD22E933E8330470F80202AB1268
:10011B00027658046009E4CC248150062850090269
:10012B0002B52840030202B2C0E0EB4A7044B9802A
:10013B0006D0E0FB0202A1EF4E701CBD8008EBFF66
:10014B00EAFEE9FD80EBE98DF0A4FEE5F00201E4A7
:10015B00E9CDF9EAFEEBFFEF89F0A4FCE5F0CE89DF
:10016B00F0A42EFFE435F0CD89F0A42DFEE435F09C
:10017B008067EF4E7005BD80D780C3EF8BF0A4ACCA
:10018B00F0EE8BF0A42CFCE435F0F8EF8AF0A42C05
:10019B00E5F038FCE433CB8DF0A42CFCE5F03BF818
:1001AB00EE8AF0A42CFCE5F038F8E433CF89F0A408
:1001BB002CFCE5F038CF3400CE89F0A42FFFE5F00E
:1001CB003EFEE433C98DF0A42EFEE5F039CD8AF066
:1001DB00A42FFFE5F03EFEE43DFD33D0E0FB5007DE
:1001EB000BBB000F0202B5EC2CFCEF33FFEE33FE22
:0601FB00ED33FD02028D50
:1002010075F020800E75F010800575F0087D007E78
:10021100007F003392D530D5031203ECEC3340104C
:10022100EF33FFEE33FEED33FDEC33FCD5F0ED2281
:0E023100E5F0247EA2D513CC92E7CDCEFF22BD
:10023F00EDD2E7CD33EC3392D524814006E4FFFEB7
:10024F00FDFC22FCE4CFCECDCC24E0501174FF8016
:10025F00EDC3CC13CCCD13CDCE13CECF13CF0470B3
:07026F00F030D5DE0203ECC4
:10027600E9D2E7C933E833F892D5EDD2E7CD33ECCE
:0702860033FC5002B2D52247
:10028D00EC30E7100FBF000C0EBE00080DBD0004D2
:10029D000BEB6014A2D5EB13FCED92E7FD2274FF7E
:1002AD00FCFDFEFF22E480F8A2D574FF13FC7D80D7
:0302BD00E480EFEB
:03000000020B826E
:0C0B8200787FE4F6D8FD758164020BC991
:1002C000E709F608DFFA8046E709F208DFFA803E20
:1002D00088828C83E709F0A3DFFA8032E309F6080D
:1002E000DFFA8078E309F208DFFA807088828C8375
:1002F000E309F0A3DFFA806489828A83E0A3F60829
:10030000DFFA805889828A83E0A3F208DFFA804C02
:1003100080D280FA80C680D4806980F280338010D9
:1003200080A680EA809A80A880DA80E280CA803342
:1003300089828A83ECFAE493A3C8C582C8CCC583BA
:10034000CCF0A3C8C582C8CCC583CCDFE9DEE7808A
:100350000D89828A83E493A3F608DFF9ECFAA9F009
:10036000EDFB2289828A83ECFAE0A3C8C582C8CC5F
:10037000C583CCF0A3C8C582C8CCC583CCDFEADE78
:10038000E880DB89828A83E493A3F208DFF980CCDA
:1003900088F0EF60010E4E60C388F0ED2402B404D3
:1003A0000050B9F582EB2402B4040050AF2323457A
:0603B0008223900310738C
:1003B600C2D5EC30E709B2D5E4C39DFDE49CFCEE62
:1003C60030E715B2D5E4C39FFFE49EFE1203FAC3DD
:1003D600E49DFDE49CFC80031203FA30D507C3E4D8
:0603E6009FFFE49EFE22D1
:0E03EC00C3E49FFFE49EFEE49DFDE49CFC2222
:100B8E00020ECBE493A3F8E493A34003F68001F2A4
:100B9E0008DFF48029E493A3F85407240CC8C33368
:100BAE00C4540F4420C8834004F456800146F6DF37
:100BBE00E4800B0102040810204080900C0EE47EAD
:100BCE00019360BCA3FF543F30E509541FFEE4932C
:100BDE00A360010ECF54C025E060A840B8E493A3F3
:100BEE00FAE493A3F8E493A3C8C582C8CAC583CA1E
:100BFE00F0A3C8C582C8CAC583CADFE9DEE780BED6
:010C6D000086
:1003FA00BC000BBE0029EF8DF084FFADF022E4CCE7
:10040A00F875F008EF2FFFEE33FEEC33FCEE9DECAF
:10041A00984005FCEE9DFE0FD5F0E9E4CEFD22EDF5
:10042A00F8F5F0EE8420D21CFEADF075F008EF2F3F
:10043A00FFED33FD4007985006D5F0F222C398FD30
:05044A000FD5F0EA22CD
:00000001FF
